{
  "contractName": "ProofOfExistence",
  "abi": [
    {
      "constant": false,
      "inputs": [
        {
          "name": "batchId",
          "type": "bytes32"
        },
        {
          "name": "name",
          "type": "bytes32"
        },
        {
          "name": "shipper",
          "type": "bytes32"
        },
        {
          "name": "receiver",
          "type": "bytes32"
        },
        {
          "name": "receiverType",
          "type": "bytes32"
        },
        {
          "name": "location",
          "type": "bytes32"
        },
        {
          "name": "expiryDate",
          "type": "bytes32"
        },
        {
          "name": "chain",
          "type": "string"
        }
      ],
      "name": "manufactureShipProduct",
      "outputs": [
        {
          "name": "success",
          "type": "bool"
        }
      ],
      "payable": false,
      "stateMutability": "nonpayable",
      "type": "function"
    },
    {
      "constant": false,
      "inputs": [
        {
          "name": "batchId",
          "type": "bytes32"
        },
        {
          "name": "receiver",
          "type": "bytes32"
        },
        {
          "name": "chain",
          "type": "string"
        }
      ],
      "name": "wholesalerDistributorShipProduct",
      "outputs": [
        {
          "name": "success",
          "type": "bool"
        }
      ],
      "payable": false,
      "stateMutability": "nonpayable",
      "type": "function"
    },
    {
      "constant": true,
      "inputs": [
        {
          "name": "batchId",
          "type": "bytes32"
        }
      ],
      "name": "hasBatch",
      "outputs": [
        {
          "name": "hasIndeed",
          "type": "bool"
        }
      ],
      "payable": false,
      "stateMutability": "view",
      "type": "function"
    },
    {
      "constant": true,
      "inputs": [
        {
          "name": "batchOwner",
          "type": "bytes32"
        }
      ],
      "name": "hasBatches",
      "outputs": [
        {
          "name": "hasIndeed",
          "type": "bool"
        }
      ],
      "payable": false,
      "stateMutability": "view",
      "type": "function"
    },
    {
      "constant": true,
      "inputs": [
        {
          "name": "batchId",
          "type": "bytes32"
        }
      ],
      "name": "checkProduct",
      "outputs": [
        {
          "name": "index",
          "type": "int256"
        }
      ],
      "payable": false,
      "stateMutability": "view",
      "type": "function"
    },
    {
      "constant": true,
      "inputs": [
        {
          "name": "index",
          "type": "uint256"
        }
      ],
      "name": "getBatchByIndex",
      "outputs": [
        {
          "name": "batchId",
          "type": "bytes32"
        },
        {
          "name": "batchOwner",
          "type": "bytes32"
        },
        {
          "name": "name",
          "type": "bytes32"
        },
        {
          "name": "shipper",
          "type": "bytes32"
        },
        {
          "name": "receiver",
          "type": "bytes32"
        },
        {
          "name": "receiverType",
          "type": "bytes32"
        },
        {
          "name": "status",
          "type": "bytes32"
        },
        {
          "name": "location",
          "type": "bytes32"
        },
        {
          "name": "note",
          "type": "bytes32"
        },
        {
          "name": "expiryDate",
          "type": "bytes32"
        },
        {
          "name": "chain",
          "type": "string"
        }
      ],
      "payable": false,
      "stateMutability": "view",
      "type": "function"
    },
    {
      "constant": true,
      "inputs": [],
      "name": "getBatchesCount",
      "outputs": [
        {
          "name": "count",
          "type": "uint256"
        }
      ],
      "payable": false,
      "stateMutability": "view",
      "type": "function"
    },
    {
      "constant": false,
      "inputs": [
        {
          "name": "batchId",
          "type": "bytes32"
        },
        {
          "name": "note",
          "type": "bytes32"
        },
        {
          "name": "chain",
          "type": "string"
        }
      ],
      "name": "returnShipment",
      "outputs": [
        {
          "name": "success",
          "type": "bool"
        }
      ],
      "payable": false,
      "stateMutability": "nonpayable",
      "type": "function"
    },
    {
      "constant": false,
      "inputs": [
        {
          "name": "batchId",
          "type": "bytes32"
        },
        {
          "name": "location",
          "type": "bytes32"
        }
      ],
      "name": "AcceptShipment",
      "outputs": [
        {
          "name": "success",
          "type": "bool"
        }
      ],
      "payable": false,
      "stateMutability": "nonpayable",
      "type": "function"
    },
    {
      "constant": true,
      "inputs": [
        {
          "name": "batchOwner",
          "type": "bytes32"
        }
      ],
      "name": "getBatchesByBatchOwnerAddress",
      "outputs": [
        {
          "name": "index",
          "type": "uint256"
        },
        {
          "name": "batchId",
          "type": "bytes32"
        },
        {
          "name": "name",
          "type": "bytes32"
        },
        {
          "name": "status",
          "type": "bytes32"
        },
        {
          "name": "location",
          "type": "bytes32"
        },
        {
          "name": "note",
          "type": "bytes32"
        },
        {
          "name": "expiryDate",
          "type": "bytes32"
        },
        {
          "name": "chain",
          "type": "string"
        }
      ],
      "payable": false,
      "stateMutability": "view",
      "type": "function"
    },
    {
      "constant": true,
      "inputs": [
        {
          "name": "index",
          "type": "uint256"
        }
      ],
      "name": "getChain",
      "outputs": [
        {
          "name": "chain",
          "type": "string"
        }
      ],
      "payable": false,
      "stateMutability": "view",
      "type": "function"
    }
  ],
  "bytecode": "0x608060405234801561001057600080fd5b50611520806100206000396000f3fe6080604052600436106100a9576000357c01000000000000000000000000000000000000000000000000000000009004806305de70d3146100ae5780632987c8f7146101a2578063721695c7146101f15780638d18fdfb146102e557806398fafe9a14610338578063a0a0df3d1461041d578063ac18349914610470578063b6791ad41461049b578063b6b0cfd41461054f578063e925cfb914610649578063f99cb49114610770575b600080fd5b3480156100ba57600080fd5b50610188600480360360608110156100d157600080fd5b8101908080359060200190929190803590602001909291908035906020019064010000000081111561010257600080fd5b82018360208201111561011457600080fd5b8035906020019184600183028401116401000000008311171561013657600080fd5b91908080601f016020809104026020016040519081016040528093929190818152602001838380828437600081840152601f19601f8201169050808301925050505050505091929192905050506107cd565b604051808215151515815260200191505060405180910390f35b3480156101ae57600080fd5b506101db600480360360208110156101c557600080fd5b8101908080359060200190929190505050610909565b6040518082815260200191505060405180910390f35b3480156101fd57600080fd5b506102cb6004803603606081101561021457600080fd5b8101908080359060200190929190803590602001909291908035906020019064010000000081111561024557600080fd5b82018360208201111561025757600080fd5b8035906020019184600183028401116401000000008311171561027957600080fd5b91908080601f016020809104026020016040519081016040528093929190818152602001838380828437600081840152601f19601f820116905080830192505050505050509192919290505050610985565b604051808215151515815260200191505060405180910390f35b3480156102f157600080fd5b5061031e6004803603602081101561030857600080fd5b8101908080359060200190929190505050610b78565b604051808215151515815260200191505060405180910390f35b34801561034457600080fd5b506103716004803603602081101561035b57600080fd5b8101908080359060200190929190505050610bce565b6040518089815260200188815260200187815260200186815260200185815260200184815260200183815260200180602001828103825283818151815260200191508051906020019080838360005b838110156103db5780820151818401526020810190506103c0565b50505050905090810190601f1680156104085780820380516001836020036101000a031916815260200191505b50995050505050505050505060405180910390f35b34801561042957600080fd5b506104566004803603602081101561044057600080fd5b8101908080359060200190929190505050610dc1565b604051808215151515815260200191505060405180910390f35b34801561047c57600080fd5b50610485610df1565b6040518082815260200191505060405180910390f35b3480156104a757600080fd5b506104d4600480360360208110156104be57600080fd5b8101908080359060200190929190505050610dfe565b6040518080602001828103825283818151815260200191508051906020019080838360005b838110156105145780820151818401526020810190506104f9565b50505050905090810190601f1680156105415780820380516001836020036101000a031916815260200191505b509250505060405180910390f35b34801561055b57600080fd5b506105886004803603602081101561057257600080fd5b8101908080359060200190929190505050610ecc565b604051808c81526020018b81526020018a815260200189815260200188815260200187815260200186815260200185815260200184815260200183815260200180602001828103825283818151815260200191508051906020019080838360005b838110156106045780820151818401526020810190506105e9565b50505050905090810190601f1680156106315780820380516001836020036101000a031916815260200191505b509c5050505050505050505050505060405180910390f35b34801561065557600080fd5b50610756600480360361010081101561066d57600080fd5b8101908080359060200190929190803590602001909291908035906020019092919080359060200190929190803590602001909291908035906020019092919080359060200190929190803590602001906401000000008111156106d057600080fd5b8201836020820111156106e257600080fd5b8035906020019184600183028401116401000000008311171561070457600080fd5b91908080601f016020809104026020016040519081016040528093929190818152602001838380828437600081840152601f19601f8201169050808301925050505050505091929192905050506110d4565b604051808215151515815260200191505060405180910390f35b34801561077c57600080fd5b506107b36004803603604081101561079357600080fd5b810190808035906020019092919080359060200190929190505050611354565b604051808215151515815260200191505060405180910390f35b60006107d884610dc1565b15156107e357600080fd5b7f496e205472616e7369740000000000000000000000000000000000000000000060086000808781526020019081526020016000205481548110151561082557fe5b906000526020600020018190555060036000808681526020019081526020016000205481548110151561085457fe5b906000526020600020015460056000808781526020019081526020016000205481548110151561088057fe5b9060005260206000200181905550826006600080878152602001908152602001600020548154811015156108b057fe5b906000526020600020018190555081600c600080878152602001908152602001600020548154811015156108e057fe5b9060005260206000200190805190602001906108fd92919061144f565b50600190509392505050565b60006001151561091883610dc1565b151514801561093d575060028054905060008084815260200190815260200160002054105b1561095c57600080838152602001908152602001600020549050610980565b7fffffffffffffffffffffffffffffffffffffffffffffffffffffffffffffffff90505b919050565b600061099084610dc1565b151561099b57600080fd5b60006006600080878152602001908152602001600020548154811015156109be57fe5b9060005260206000200154905060006005600080888152602001908152602001600020548154811015156109ee57fe5b906000526020600020015490507f52656a6563746564000000000000000000000000000000000000000000000000600860008089815260200190815260200160002054815481101515610a3d57fe5b906000526020600020018190555084600b60008089815260200190815260200160002054815481101515610a6d57fe5b906000526020600020018190555081600560008089815260200190815260200160002054815481101515610a9d57fe5b906000526020600020018190555080600660008089815260200190815260200160002054815481101515610acd57fe5b90600052602060002001819055507f62617463684f776e657200000000000000000000000000000000000000000000600760008089815260200190815260200160002054815481101515610b1d57fe5b906000526020600020018190555083600c60008089815260200190815260200160002054815481101515610b4d57fe5b906000526020600020019080519060200190610b6a92919061144f565b506001925050509392505050565b6000806001600084815260200190815260200160002054101580610bc7575060036001600084815260200190815260200160002054815481101515610bb957fe5b906000526020600020015482145b9050919050565b60008060008060008060006060610be489610b78565b1515610bef57600080fd5b600380549050600160008b815260200190815260200160002054111515610c1557600080fd5b6000600160008b8152602001908152602001600020549050600160008b8152602001908152602001600020546002600160008d815260200190815260200160002054815481101515610c6357fe5b9060005260206000200154600483815481101515610c7d57fe5b9060005260206000200154600884815481101515610c9757fe5b9060005260206000200154600985815481101515610cb157fe5b9060005260206000200154600b86815481101515610ccb57fe5b9060005260206000200154600a87815481101515610ce557fe5b9060005260206000200154600c88815481101515610cff57fe5b90600052602060002001808054600181600116156101000203166002900480601f016020809104026020016040519081016040528092919081815260200182805460018160011615610100020316600290048015610d9e5780601f10610d7357610100808354040283529160200191610d9e565b820191906000526020600020905b815481529060010190602001808311610d8157829003601f168201915b505050505090509850985098509850985098509850985050919395975091939597565b60008060008084815260200190815260200160002054101515610de75760019050610dec565b600090505b919050565b6000600280549050905090565b606060028054905082101515610e1357600080fd5b600c82815481101515610e2257fe5b906000526020600020018054600181600116156101000203166002900480601f016020809104026020016040519081016040528092919081815260200182805460018160011615610100020316600290048015610ec05780601f10610e9557610100808354040283529160200191610ec0565b820191906000526020600020905b815481529060010190602001808311610ea357829003601f168201915b50505050509050919050565b60008060008060008060008060008060606002805490508c101515610ef057600080fd5b60008c905060028d815481101515610f0457fe5b906000526020600020015460038e815481101515610f1e57fe5b9060005260206000200154600483815481101515610f3857fe5b9060005260206000200154600584815481101515610f5257fe5b9060005260206000200154600685815481101515610f6c57fe5b9060005260206000200154600786815481101515610f8657fe5b9060005260206000200154600887815481101515610fa057fe5b9060005260206000200154600988815481101515610fba57fe5b9060005260206000200154600b89815481101515610fd457fe5b9060005260206000200154600a8a815481101515610fee57fe5b9060005260206000200154600c8b81548110151561100857fe5b90600052602060002001808054600181600116156101000203166002900480601f0160208091040260200160405190810160405280929190818152602001828054600181600116156101000203166002900480156110a75780601f1061107c576101008083540402835291602001916110a7565b820191906000526020600020905b81548152906001019060200180831161108a57829003601f168201915b505050505090509b509b509b509b509b509b509b509b509b509b509b505091939597999b90929496989a50565b60006002899080600181540180825580915050906001820390600052602060002001600090919290919091505550600387908060018154018082558091505090600182039060005260206000200160009091929091909150555060048890806001815401808255809150509060018203906000526020600020016000909192909190915055506005879080600181540180825580915050906001820390600052602060002001600090919290919091505550600686908060018154018082558091505090600182039060005260206000200160009091929091909150555060078590806001815401808255809150509060018203906000526020600020016000909192909190915055506009849080600181540180825580915050906001820390600052602060002001600090919290919091505550600a83908060018154018082558091505090600182039060005260206000200160009091929091909150555060088060018154018082558091505090600182039060005260206000200160007f536869707065640000000000000000000000000000000000000000000000000090919091505550600b8060018154018082558091505090600182039060005260206000200160007f200000000000000000000000000000000000000000000000000000000000000090919091505550600c82908060018154018082558091505090600182039060005260206000200160009091929091909150908051906020019061130392919061144f565b50506001600280549050036000808b81526020019081526020016000208190555060016003805490500360016000898152602001908152602001600020819055506001905098975050505050505050565b600061135f83610dc1565b151561136a57600080fd5b7f44656c69766572656400000000000000000000000000000000000000000000006008600080868152602001908152602001600020548154811015156113ac57fe5b90600052602060002001819055506006600080858152602001908152602001600020548154811015156113db57fe5b906000526020600020015460036000808681526020019081526020016000205481548110151561140757fe5b90600052602060002001819055508160096000808681526020019081526020016000205481548110151561143757fe5b90600052602060002001819055506001905092915050565b828054600181600116156101000203166002900490600052602060002090601f016020900481019282601f1061149057805160ff19168380011785556114be565b828001600101855582156114be579182015b828111156114bd5782518255916020019190600101906114a2565b5b5090506114cb91906114cf565b5090565b6114f191905b808211156114ed5760008160009055506001016114d5565b5090565b9056fea165627a7a72305820ddf74e88ff71d2e4dd5bcf7f7fc9575b1080c7332d5d074ba1267888ef5b8eb50029",
  "source": "// SPDX-License-Identifier: MIT\r\n\r\npragma solidity >=0.4.22 <0.9.0;\r\n\r\ncontract ProofOfExistence {\r\n\r\n    mapping(bytes32 => uint) private batchIdToIndex;\r\n    mapping(bytes32 => uint) private batchOwnerToIndex;\r\n\r\n\r\n    bytes32[] private batchIds;\r\n    bytes32[] private batchOwners;\r\n    bytes32[] private names;\r\n    bytes32[] private shippers;\r\n    bytes32[] private receivers;\r\n    bytes32[] private receiverTypes;\r\n    bytes32[] private statuses; //shipped, delivered , Accepted/Rejected\r\n    bytes32[] private locations;\r\n    bytes32[] private expiryDates;\r\n    bytes32[] private notes;\r\n    string[] private supplyChain;\r\n\r\n    // Store Shipped Batched On The Distributed Ledger\r\n    function manufactureShipProduct\r\n    (\r\n    bytes32 batchId,bytes32 name,bytes32 shipper,bytes32 receiver, bytes32 receiverType,\r\n        bytes32 location,bytes32 expiryDate,string memory chain\r\n    )\r\n    public returns(bool success)\r\n    {\r\n        batchIds.push(batchId);\r\n        batchOwners.push(shipper);//shipper\r\n        names.push(name);\r\n\r\n        shippers.push(shipper);\r\n        receivers.push(receiver);\r\n        receiverTypes.push(receiverType);\r\n        locations.push(location);\r\n        expiryDates.push(expiryDate);\r\n        statuses.push('Shipped');\r\n        notes.push(' ');\r\n        supplyChain.push(chain);\r\n\r\n        batchIdToIndex[batchId] = batchIds.length - 1;\r\n        batchOwnerToIndex[shipper] = batchOwners.length - 1;\r\n\r\n        return true;\r\n\r\n    }\r\n\r\n    function wholesalerDistributorShipProduct (bytes32 batchId, bytes32 receiver, string memory chain) public returns(bool success)\r\n    {\r\n        require(hasBatch(batchId));\r\n\r\n\r\n        statuses[batchIdToIndex[batchId]] = \"In Transit\";\r\n        shippers[batchIdToIndex[batchId]] = batchOwners[batchIdToIndex[batchId]];\r\n        receivers[batchIdToIndex[batchId]] = receiver;\r\n        supplyChain[batchIdToIndex[batchId]] = chain;\r\n\r\n        return true;\r\n    }\r\n\r\n    //Proof of Existence\r\n    function hasBatch(bytes32 batchId) public view returns(bool hasIndeed)\r\n    {\r\n        if(batchIdToIndex[batchId] >= 0){\r\n            return true;\r\n        }else {\r\n        return false;\r\n        }\r\n        //return batchIdToIndex[batchId] >= 0;\r\n    }\r\n\r\n    //find batches by batchOwner address\r\n    function hasBatches(bytes32 batchOwner) public view returns(bool hasIndeed)\r\n    {\r\n        return (batchOwnerToIndex[batchOwner] >= 0 || batchOwner == batchOwners[batchOwnerToIndex[batchOwner]]);\r\n    }\r\n\r\n    //check for whereabouts of the batch\r\n    function checkProduct(bytes32 batchId) public view returns(int index)\r\n    {\r\n        //require(hasBatch(batchId));\r\n        //require(batchIdToIndex[batchId] < batchIds.length);\r\n\r\n        if(hasBatch(batchId) == true  && batchIdToIndex[batchId] < batchIds.length)\r\n        {\r\n            return int(batchIdToIndex[batchId]);\r\n        }\r\n        else\r\n        {\r\n            return -1;\r\n        }\r\n\r\n    }\r\n\r\n    //get batchByIndex\r\n    function getBatchByIndex(uint index) public view returns(bytes32 batchId,bytes32 batchOwner,bytes32 name,bytes32 shipper,bytes32 receiver, bytes32 receiverType, bytes32 status,bytes32 location,\r\n        bytes32 note,bytes32 expiryDate,string memory chain)\r\n    {\r\n        require(index < batchIds.length);\r\n        uint i = index;\r\n\r\n        return (batchIds[index],batchOwners[index],names[i],shippers[i],receivers[i],\r\n        receiverTypes[i], statuses[i],locations[i]\r\n        ,notes[i],expiryDates[i],supplyChain[i]);\r\n    }\r\n\r\n    //get batches count\r\n    function getBatchesCount() public view returns(uint count)\r\n    {\r\n        return batchIds.length;\r\n    }\r\n\r\n    //Receive Product\r\n    //function scanShipment(bytes32 batchId,bytes32 location) public returns(bool success)\r\n    //{\r\n   //     require(hasBatch(batchId));\r\n\r\n        //update batch details\r\n     //   statuses[batchIdToIndex[batchId]] = \"Delivered\";\r\n     //   batchOwners[batchIdToIndex[batchId]] = receivers[batchIdToIndex[batchId]];\r\n     //   locations[batchIdToIndex[batchId]] = location;\r\n\r\n     //   return true;\r\n   // }\r\n\r\n\r\n    //reject batch\r\n    function returnShipment(bytes32 batchId,bytes32 note,string memory chain) public returns(bool success)\r\n    {\r\n        require(hasBatch(batchId));\r\n\r\n\r\n        //update batch details\r\n        bytes32 shipper = receivers[batchIdToIndex[batchId]];\r\n        bytes32 receiver = shippers[batchIdToIndex[batchId]];\r\n\r\n        statuses[batchIdToIndex[batchId]] = \"Rejected\";\r\n        notes[batchIdToIndex[batchId]] = note;\r\n        shippers[batchIdToIndex[batchId]] = shipper;\r\n        receivers[batchIdToIndex[batchId]] = receiver;\r\n        receiverTypes[batchIdToIndex[batchId]] = \"batchOwner\";\r\n        supplyChain[batchIdToIndex[batchId]] = chain;\r\n\r\n        return true;\r\n    }\r\n\r\n    //accept batch\r\n    function AcceptShipment(bytes32 batchId,bytes32 location) public returns(bool success)\r\n    {\r\n        require(hasBatch(batchId));\r\n\r\n        //update batch details\r\n        statuses[batchIdToIndex[batchId]] = \"Delivered\";\r\n        batchOwners[batchIdToIndex[batchId]] = receivers[batchIdToIndex[batchId]];\r\n        locations[batchIdToIndex[batchId]] = location;\r\n\r\n        return true;\r\n\r\n    }\r\n\r\n    //return all batches owned by user\r\n    function getBatchesByBatchOwnerAddress(bytes32 batchOwner) public view returns\r\n    (\r\n    uint index,bytes32 batchId,bytes32 name,bytes32 status,bytes32 location,\r\n        bytes32 note,bytes32 expiryDate,string memory chain\r\n        )\r\n    {\r\n        require(hasBatches(batchOwner));\r\n        require(batchOwnerToIndex[batchOwner] > batchOwners.length);\r\n        uint b = batchOwnerToIndex[batchOwner];\r\n\r\n\r\n        return (\r\n        batchOwnerToIndex[batchOwner],batchIds[batchOwnerToIndex[batchOwner]],\r\n        names[b],statuses[b],locations[b]\r\n        ,notes[b],expiryDates[b],supplyChain[b]\r\n        );\r\n\r\n    }\r\n\r\n    //return complete chain of batch\r\n    function getChain(uint index) public view returns(string memory chain)\r\n    {\r\n        require(index < batchIds.length);\r\n\r\n        return (supplyChain[index]);\r\n    }\r\n\r\n}",
  "sourcePath": "C:/Users/Dell/Documents/SourceTree/pharma-supply-blockchain/contracts/ProofOfExistence.sol",
  "compiler": {
    "name": "solc",
    "version": "0.5.1+commit.c8a2cb62.Emscripten.clang"
  },
  "schemaVersion": "3.3.3",
  "updatedAt": "2021-05-20T10:48:37.038Z",
  "networkType": "ethereum",
  "devdoc": {
    "methods": {}
  },
  "userdoc": {
    "methods": {}
  }
}