{
  "contractName": "ProofOfExistence",
  "abi": [
    {
      "constant": false,
      "inputs": [
        {
          "name": "batchId",
          "type": "bytes32"
        },
        {
          "name": "name",
          "type": "bytes32"
        },
        {
          "name": "shipper",
          "type": "bytes32"
        },
        {
          "name": "receiver",
          "type": "bytes32"
        },
        {
          "name": "receiverType",
          "type": "bytes32"
        },
        {
          "name": "location",
          "type": "bytes32"
        },
        {
          "name": "expiryDate",
          "type": "bytes32"
        },
        {
          "name": "chain",
          "type": "string"
        }
      ],
      "name": "manufactureShipProduct",
      "outputs": [
        {
          "name": "success",
          "type": "bool"
        }
      ],
      "payable": false,
      "stateMutability": "nonpayable",
      "type": "function"
    },
    {
      "constant": false,
      "inputs": [
        {
          "name": "batchId",
          "type": "bytes32"
        },
        {
          "name": "receiver",
          "type": "bytes32"
        },
        {
          "name": "receiverType",
          "type": "bytes32"
        },
        {
          "name": "chain",
          "type": "string"
        }
      ],
      "name": "wholesalerDistributorShipProduct",
      "outputs": [
        {
          "name": "success",
          "type": "bool"
        }
      ],
      "payable": false,
      "stateMutability": "nonpayable",
      "type": "function"
    },
    {
      "constant": true,
      "inputs": [
        {
          "name": "batchId",
          "type": "bytes32"
        }
      ],
      "name": "hasBatch",
      "outputs": [
        {
          "name": "hasIndeed",
          "type": "bool"
        }
      ],
      "payable": false,
      "stateMutability": "view",
      "type": "function"
    },
    {
      "constant": true,
      "inputs": [
        {
          "name": "batchOwner",
          "type": "bytes32"
        }
      ],
      "name": "hasBatches",
      "outputs": [
        {
          "name": "hasIndeed",
          "type": "bool"
        }
      ],
      "payable": false,
      "stateMutability": "view",
      "type": "function"
    },
    {
      "constant": true,
      "inputs": [
        {
          "name": "batchId",
          "type": "bytes32"
        }
      ],
      "name": "checkProduct",
      "outputs": [
        {
          "name": "index",
          "type": "int256"
        }
      ],
      "payable": false,
      "stateMutability": "view",
      "type": "function"
    },
    {
      "constant": true,
      "inputs": [
        {
          "name": "index",
          "type": "uint256"
        }
      ],
      "name": "getBatchByIndex",
      "outputs": [
        {
          "name": "batchId",
          "type": "bytes32"
        },
        {
          "name": "batchOwner",
          "type": "bytes32"
        },
        {
          "name": "name",
          "type": "bytes32"
        },
        {
          "name": "shipper",
          "type": "bytes32"
        },
        {
          "name": "receiver",
          "type": "bytes32"
        },
        {
          "name": "receiverType",
          "type": "bytes32"
        },
        {
          "name": "status",
          "type": "bytes32"
        },
        {
          "name": "location",
          "type": "bytes32"
        },
        {
          "name": "note",
          "type": "bytes32"
        },
        {
          "name": "expiryDate",
          "type": "bytes32"
        },
        {
          "name": "chain",
          "type": "string"
        }
      ],
      "payable": false,
      "stateMutability": "view",
      "type": "function"
    },
    {
      "constant": true,
      "inputs": [],
      "name": "getBatchesCount",
      "outputs": [
        {
          "name": "count",
          "type": "uint256"
        }
      ],
      "payable": false,
      "stateMutability": "view",
      "type": "function"
    },
    {
      "constant": false,
      "inputs": [
        {
          "name": "batchId",
          "type": "bytes32"
        },
        {
          "name": "note",
          "type": "bytes32"
        },
        {
          "name": "chain",
          "type": "string"
        }
      ],
      "name": "returnShipment",
      "outputs": [
        {
          "name": "success",
          "type": "bool"
        }
      ],
      "payable": false,
      "stateMutability": "nonpayable",
      "type": "function"
    },
    {
      "constant": false,
      "inputs": [
        {
          "name": "batchId",
          "type": "bytes32"
        },
        {
          "name": "location",
          "type": "bytes32"
        }
      ],
      "name": "AcceptShipment",
      "outputs": [
        {
          "name": "success",
          "type": "bool"
        }
      ],
      "payable": false,
      "stateMutability": "nonpayable",
      "type": "function"
    },
    {
      "constant": true,
      "inputs": [
        {
          "name": "batchOwner",
          "type": "bytes32"
        }
      ],
      "name": "getBatchesByBatchOwnerAddress",
      "outputs": [
        {
          "name": "index",
          "type": "uint256"
        },
        {
          "name": "batchId",
          "type": "bytes32"
        },
        {
          "name": "name",
          "type": "bytes32"
        },
        {
          "name": "status",
          "type": "bytes32"
        },
        {
          "name": "location",
          "type": "bytes32"
        },
        {
          "name": "note",
          "type": "bytes32"
        },
        {
          "name": "expiryDate",
          "type": "bytes32"
        },
        {
          "name": "chain",
          "type": "string"
        }
      ],
      "payable": false,
      "stateMutability": "view",
      "type": "function"
    },
    {
      "constant": true,
      "inputs": [
        {
          "name": "index",
          "type": "uint256"
        }
      ],
      "name": "getChain",
      "outputs": [
        {
          "name": "chain",
          "type": "string"
        }
      ],
      "payable": false,
      "stateMutability": "view",
      "type": "function"
    }
  ],
  "bytecode": "0x608060405234801561001057600080fd5b50611557806100206000396000f3fe6080604052600436106100a9576000357c0100000000000000000000000000000000000000000000000000000000900480632987c8f7146100ae578063721695c7146100fd5780638d18fdfb146101f157806398fafe9a14610244578063a0a0df3d14610329578063ac1834991461037c578063adfbcae0146103a7578063b6791ad4146104a5578063b6b0cfd414610559578063e925cfb914610653578063f99cb4911461077a575b600080fd5b3480156100ba57600080fd5b506100e7600480360360208110156100d157600080fd5b81019080803590602001909291905050506107d7565b6040518082815260200191505060405180910390f35b34801561010957600080fd5b506101d76004803603606081101561012057600080fd5b8101908080359060200190929190803590602001909291908035906020019064010000000081111561015157600080fd5b82018360208201111561016357600080fd5b8035906020019184600183028401116401000000008311171561018557600080fd5b91908080601f016020809104026020016040519081016040528093929190818152602001838380828437600081840152601f19601f82011690508083019250505050505050919291929050505061084f565b604051808215151515815260200191505060405180910390f35b3480156101fd57600080fd5b5061022a6004803603602081101561021457600080fd5b8101908080359060200190929190505050610a42565b604051808215151515815260200191505060405180910390f35b34801561025057600080fd5b5061027d6004803603602081101561026757600080fd5b8101908080359060200190929190505050610a98565b6040518089815260200188815260200187815260200186815260200185815260200184815260200183815260200180602001828103825283818151815260200191508051906020019080838360005b838110156102e75780820151818401526020810190506102cc565b50505050905090810190601f1680156103145780820380516001836020036101000a031916815260200191505b50995050505050505050505060405180910390f35b34801561033557600080fd5b506103626004803603602081101561034c57600080fd5b8101908080359060200190929190505050610c8b565b604051808215151515815260200191505060405180910390f35b34801561038857600080fd5b50610391610cbb565b6040518082815260200191505060405180910390f35b3480156103b357600080fd5b5061048b600480360360808110156103ca57600080fd5b810190808035906020019092919080359060200190929190803590602001909291908035906020019064010000000081111561040557600080fd5b82018360208201111561041757600080fd5b8035906020019184600183028401116401000000008311171561043957600080fd5b91908080601f016020809104026020016040519081016040528093929190818152602001838380828437600081840152601f19601f820116905080830192505050505050509192919290505050610cc8565b604051808215151515815260200191505060405180910390f35b3480156104b157600080fd5b506104de600480360360208110156104c857600080fd5b8101908080359060200190929190505050610e35565b6040518080602001828103825283818151815260200191508051906020019080838360005b8381101561051e578082015181840152602081019050610503565b50505050905090810190601f16801561054b5780820380516001836020036101000a031916815260200191505b509250505060405180910390f35b34801561056557600080fd5b506105926004803603602081101561057c57600080fd5b8101908080359060200190929190505050610f03565b604051808c81526020018b81526020018a815260200189815260200188815260200187815260200186815260200185815260200184815260200183815260200180602001828103825283818151815260200191508051906020019080838360005b8381101561060e5780820151818401526020810190506105f3565b50505050905090810190601f16801561063b5780820380516001836020036101000a031916815260200191505b509c5050505050505050505050505060405180910390f35b34801561065f57600080fd5b50610760600480360361010081101561067757600080fd5b8101908080359060200190929190803590602001909291908035906020019092919080359060200190929190803590602001909291908035906020019092919080359060200190929190803590602001906401000000008111156106da57600080fd5b8201836020820111156106ec57600080fd5b8035906020019184600183028401116401000000008311171561070e57600080fd5b91908080601f016020809104026020016040519081016040528093929190818152602001838380828437600081840152601f19601f82011690508083019250505050505050919291929050505061110b565b604051808215151515815260200191505060405180910390f35b34801561078657600080fd5b506107bd6004803603604081101561079d57600080fd5b81019080803590602001909291908035906020019092919050505061138b565b604051808215151515815260200191505060405180910390f35b60006002600080848152602001908152602001600020548154811015156107fa57fe5b90600052602060002001548214156108265760008083815260200190815260200160002054905061084a565b7fffffffffffffffffffffffffffffffffffffffffffffffffffffffffffffffff90505b919050565b600061085a84610c8b565b151561086557600080fd5b600060066000808781526020019081526020016000205481548110151561088857fe5b9060005260206000200154905060006005600080888152602001908152602001600020548154811015156108b857fe5b906000526020600020015490507f52656a656374656400000000000000000000000000000000000000000000000060086000808981526020019081526020016000205481548110151561090757fe5b906000526020600020018190555084600b6000808981526020019081526020016000205481548110151561093757fe5b90600052602060002001819055508160056000808981526020019081526020016000205481548110151561096757fe5b90600052602060002001819055508060066000808981526020019081526020016000205481548110151561099757fe5b90600052602060002001819055507f62617463684f776e6572000000000000000000000000000000000000000000006007600080898152602001908152602001600020548154811015156109e757fe5b906000526020600020018190555083600c60008089815260200190815260200160002054815481101515610a1757fe5b906000526020600020019080519060200190610a34929190611486565b506001925050509392505050565b6000806001600084815260200190815260200160002054101580610a91575060036001600084815260200190815260200160002054815481101515610a8357fe5b906000526020600020015482145b9050919050565b60008060008060008060006060610aae89610a42565b1515610ab957600080fd5b600380549050600160008b815260200190815260200160002054111515610adf57600080fd5b6000600160008b8152602001908152602001600020549050600160008b8152602001908152602001600020546002600160008d815260200190815260200160002054815481101515610b2d57fe5b9060005260206000200154600483815481101515610b4757fe5b9060005260206000200154600884815481101515610b6157fe5b9060005260206000200154600985815481101515610b7b57fe5b9060005260206000200154600b86815481101515610b9557fe5b9060005260206000200154600a87815481101515610baf57fe5b9060005260206000200154600c88815481101515610bc957fe5b90600052602060002001808054600181600116156101000203166002900480601f016020809104026020016040519081016040528092919081815260200182805460018160011615610100020316600290048015610c685780601f10610c3d57610100808354040283529160200191610c68565b820191906000526020600020905b815481529060010190602001808311610c4b57829003601f168201915b505050505090509850985098509850985098509850985050919395975091939597565b60008060008084815260200190815260200160002054101515610cb15760019050610cb6565b600090505b919050565b6000600280549050905090565b6000610cd385610c8b565b1515610cde57600080fd5b7f496e205472616e73697400000000000000000000000000000000000000000000600860008088815260200190815260200160002054815481101515610d2057fe5b9060005260206000200181905550600360008087815260200190815260200160002054815481101515610d4f57fe5b9060005260206000200154600560008088815260200190815260200160002054815481101515610d7b57fe5b906000526020600020018190555083600660008088815260200190815260200160002054815481101515610dab57fe5b906000526020600020018190555082600760008088815260200190815260200160002054815481101515610ddb57fe5b906000526020600020018190555081600c60008088815260200190815260200160002054815481101515610e0b57fe5b906000526020600020019080519060200190610e28929190611486565b5060019050949350505050565b606060028054905082101515610e4a57600080fd5b600c82815481101515610e5957fe5b906000526020600020018054600181600116156101000203166002900480601f016020809104026020016040519081016040528092919081815260200182805460018160011615610100020316600290048015610ef75780601f10610ecc57610100808354040283529160200191610ef7565b820191906000526020600020905b815481529060010190602001808311610eda57829003601f168201915b50505050509050919050565b60008060008060008060008060008060606002805490508c101515610f2757600080fd5b60008c905060028d815481101515610f3b57fe5b906000526020600020015460038e815481101515610f5557fe5b9060005260206000200154600483815481101515610f6f57fe5b9060005260206000200154600584815481101515610f8957fe5b9060005260206000200154600685815481101515610fa357fe5b9060005260206000200154600786815481101515610fbd57fe5b9060005260206000200154600887815481101515610fd757fe5b9060005260206000200154600988815481101515610ff157fe5b9060005260206000200154600b8981548110151561100b57fe5b9060005260206000200154600a8a81548110151561102557fe5b9060005260206000200154600c8b81548110151561103f57fe5b90600052602060002001808054600181600116156101000203166002900480601f0160208091040260200160405190810160405280929190818152602001828054600181600116156101000203166002900480156110de5780601f106110b3576101008083540402835291602001916110de565b820191906000526020600020905b8154815290600101906020018083116110c157829003601f168201915b505050505090509b509b509b509b509b509b509b509b509b509b509b505091939597999b90929496989a50565b60006002899080600181540180825580915050906001820390600052602060002001600090919290919091505550600387908060018154018082558091505090600182039060005260206000200160009091929091909150555060048890806001815401808255809150509060018203906000526020600020016000909192909190915055506005879080600181540180825580915050906001820390600052602060002001600090919290919091505550600686908060018154018082558091505090600182039060005260206000200160009091929091909150555060078590806001815401808255809150509060018203906000526020600020016000909192909190915055506009849080600181540180825580915050906001820390600052602060002001600090919290919091505550600a83908060018154018082558091505090600182039060005260206000200160009091929091909150555060088060018154018082558091505090600182039060005260206000200160007f536869707065640000000000000000000000000000000000000000000000000090919091505550600b8060018154018082558091505090600182039060005260206000200160007f200000000000000000000000000000000000000000000000000000000000000090919091505550600c82908060018154018082558091505090600182039060005260206000200160009091929091909150908051906020019061133a929190611486565b50506001600280549050036000808b81526020019081526020016000208190555060016003805490500360016000898152602001908152602001600020819055506001905098975050505050505050565b600061139683610c8b565b15156113a157600080fd5b7f44656c69766572656400000000000000000000000000000000000000000000006008600080868152602001908152602001600020548154811015156113e357fe5b906000526020600020018190555060066000808581526020019081526020016000205481548110151561141257fe5b906000526020600020015460036000808681526020019081526020016000205481548110151561143e57fe5b90600052602060002001819055508160096000808681526020019081526020016000205481548110151561146e57fe5b90600052602060002001819055506001905092915050565b828054600181600116156101000203166002900490600052602060002090601f016020900481019282601f106114c757805160ff19168380011785556114f5565b828001600101855582156114f5579182015b828111156114f45782518255916020019190600101906114d9565b5b5090506115029190611506565b5090565b61152891905b8082111561152457600081600090555060010161150c565b5090565b9056fea165627a7a7230582003adc86935521ec7ce696621e3d7fecb28c2124f93360e549a2364435bdce5730029",
  "source": "// SPDX-License-Identifier: MIT\n\npragma solidity >=0.4.22 <0.9.0;\n\ncontract ProofOfExistence {\n\n    mapping(bytes32 => uint) private batchIdToIndex;\n    mapping(bytes32 => uint) private batchOwnerToIndex;\n\n\n    bytes32[] private batchIds;\n    bytes32[] private batchOwners;\n    bytes32[] private names;\n    bytes32[] private shippers;\n    bytes32[] private receivers;\n    bytes32[] private receiverTypes;\n    bytes32[] private statuses; //shipped, delivered , Accepted/Rejected\n    bytes32[] private locations;\n    bytes32[] private expiryDates;\n    bytes32[] private notes;\n    string[] private supplyChain;\n\n    // Store Shipped Batched On The Distributed Ledger\n    function manufactureShipProduct\n    (\n    bytes32 batchId,bytes32 name,bytes32 shipper,bytes32 receiver, bytes32 receiverType,\n        bytes32 location,bytes32 expiryDate,string memory chain\n    )\n    public returns(bool success)\n    {\n        batchIds.push(batchId);\n        batchOwners.push(shipper);//shipper\n        names.push(name);\n\n        shippers.push(shipper);\n        receivers.push(receiver);\n        receiverTypes.push(receiverType);\n        locations.push(location);\n        expiryDates.push(expiryDate);\n        statuses.push('Shipped');\n        notes.push(' ');\n        supplyChain.push(chain);\n\n        batchIdToIndex[batchId] = batchIds.length - 1;\n        batchOwnerToIndex[shipper] = batchOwners.length - 1;\n\n        return true;\n\n    }\n\n    function wholesalerDistributorShipProduct (bytes32 batchId, bytes32 receiver,bytes32 receiverType, string memory chain) public returns(bool success)\n    {\n        require(hasBatch(batchId));\n\n\n        statuses[batchIdToIndex[batchId]] = \"In Transit\";\n        shippers[batchIdToIndex[batchId]] = batchOwners[batchIdToIndex[batchId]];\n        receivers[batchIdToIndex[batchId]] = receiver;\n        receiverTypes[batchIdToIndex[batchId]] = receiverType;\n        supplyChain[batchIdToIndex[batchId]] = chain;\n\n        return true;\n    }\n\n    //Proof of Existence\n    function hasBatch(bytes32 batchId) public view returns(bool hasIndeed)\n    {\n        if(batchIdToIndex[batchId] >= 0){\n            return true;\n        }\n        else\n        {\n        return false;\n        }\n        //return batchIdToIndex[batchId] >= 0;\n    }\n\n    //find batches by batchOwner address\n    function hasBatches(bytes32 batchOwner) public view returns(bool hasIndeed)\n    {\n        return (batchOwnerToIndex[batchOwner] >= 0 || batchOwner == batchOwners[batchOwnerToIndex[batchOwner]]);\n    }\n\n    //check for whereabouts of the batch\n    function checkProduct(bytes32 batchId) public view returns(int index)\n    {\n        //require(hasBatch(batchId));\n        //require(batchIdToIndex[batchId] < batchIds.length);\n\n        if(batchId == batchIds[batchIdToIndex[batchId]])\n        {\n            return int(batchIdToIndex[batchId]);\n        }\n        else\n        {\n            return -1;\n        }\n\n    }\n\n    //get batchByIndex\n    function getBatchByIndex(uint index) public view returns(bytes32 batchId,bytes32 batchOwner,bytes32 name,bytes32 shipper,bytes32 receiver, bytes32 receiverType, bytes32 status,bytes32 location,\n        bytes32 note,bytes32 expiryDate,string memory chain)\n    {\n        require(index < batchIds.length);\n        uint i = index;\n\n        return (batchIds[index],batchOwners[index],names[i],shippers[i],receivers[i],\n        receiverTypes[i], statuses[i],locations[i]\n        ,notes[i],expiryDates[i],supplyChain[i]);\n    }\n\n    //get batches count\n    function getBatchesCount() public view returns(uint count)\n    {\n        return batchIds.length;\n    }\n\n    //Receive Product\n\n\n    //reject batch\n    function returnShipment(bytes32 batchId,bytes32 note,string memory chain) public returns(bool success)\n    {\n        require(hasBatch(batchId));\n\n\n        //update batch details\n        bytes32 shipper = receivers[batchIdToIndex[batchId]];\n        bytes32 receiver = shippers[batchIdToIndex[batchId]];\n\n        statuses[batchIdToIndex[batchId]] = \"Rejected\";\n        notes[batchIdToIndex[batchId]] = note;\n        shippers[batchIdToIndex[batchId]] = shipper;\n        receivers[batchIdToIndex[batchId]] = receiver;\n        receiverTypes[batchIdToIndex[batchId]] = \"batchOwner\";\n        supplyChain[batchIdToIndex[batchId]] = chain;\n\n        return true;\n    }\n\n    //accept batch\n    function AcceptShipment(bytes32 batchId,bytes32 location) public returns(bool success)\n    {\n        require(hasBatch(batchId));\n\n        //update batch details\n        statuses[batchIdToIndex[batchId]] = \"Delivered\";\n        batchOwners[batchIdToIndex[batchId]] = receivers[batchIdToIndex[batchId]];\n        locations[batchIdToIndex[batchId]] = location;\n\n        return true;\n\n    }\n\n    //return all batches owned by user\n    function getBatchesByBatchOwnerAddress(bytes32 batchOwner) public view returns\n    (\n    uint index,bytes32 batchId,bytes32 name,bytes32 status,bytes32 location,\n        bytes32 note,bytes32 expiryDate,string memory chain\n        )\n    {\n        require(hasBatches(batchOwner));\n        require(batchOwnerToIndex[batchOwner] > batchOwners.length);\n        uint b = batchOwnerToIndex[batchOwner];\n\n\n        return (\n        batchOwnerToIndex[batchOwner],batchIds[batchOwnerToIndex[batchOwner]],\n        names[b],statuses[b],locations[b]\n        ,notes[b],expiryDates[b],supplyChain[b]\n        );\n\n    }\n\n    //return complete chain of batch\n    function getChain(uint index) public view returns(string memory chain)\n    {\n        require(index < batchIds.length);\n\n        return (supplyChain[index]);\n    }\n\n}",
  "sourcePath": "/home/robbiejr/Documents/Github/HIT-400/pharma-supply-blockchain/contracts/ProofOfExistence.sol",
  "compiler": {
    "name": "solc",
    "version": "0.5.1+commit.c8a2cb62.Emscripten.clang"
  },
  "schemaVersion": "3.4.1",
  "updatedAt": "2021-07-15T13:38:25.101Z",
  "networkType": "ethereum",
  "devdoc": {
    "methods": {}
  },
  "userdoc": {
    "methods": {}
  }
}