{
  "contractName": "User",
  "abi": [
    {
      "inputs": [],
      "payable": false,
      "stateMutability": "nonpayable",
      "type": "constructor"
    },
    {
      "constant": true,
      "inputs": [
        {
          "name": "userAddress",
          "type": "address"
        }
      ],
      "name": "hasUser",
      "outputs": [
        {
          "name": "hasIndeed",
          "type": "bool"
        }
      ],
      "payable": false,
      "stateMutability": "view",
      "type": "function"
    },
    {
      "constant": true,
      "inputs": [
        {
          "name": "name",
          "type": "bytes32"
        }
      ],
      "name": "nameTaken",
      "outputs": [
        {
          "name": "takenIndeed",
          "type": "bool"
        }
      ],
      "payable": false,
      "stateMutability": "view",
      "type": "function"
    },
    {
      "constant": true,
      "inputs": [
        {
          "name": "email",
          "type": "bytes32"
        }
      ],
      "name": "emailTaken",
      "outputs": [
        {
          "name": "takenIndeed",
          "type": "bool"
        }
      ],
      "payable": false,
      "stateMutability": "view",
      "type": "function"
    },
    {
      "constant": false,
      "inputs": [
        {
          "name": "name",
          "type": "bytes32"
        },
        {
          "name": "email",
          "type": "bytes32"
        },
        {
          "name": "password",
          "type": "bytes32"
        },
        {
          "name": "role",
          "type": "bytes32"
        }
      ],
      "name": "createUser",
      "outputs": [
        {
          "name": "success",
          "type": "bool"
        }
      ],
      "payable": false,
      "stateMutability": "nonpayable",
      "type": "function"
    },
    {
      "constant": false,
      "inputs": [
        {
          "name": "password",
          "type": "bytes32"
        }
      ],
      "name": "updateUser",
      "outputs": [
        {
          "name": "success",
          "type": "bool"
        }
      ],
      "payable": false,
      "stateMutability": "nonpayable",
      "type": "function"
    },
    {
      "constant": true,
      "inputs": [],
      "name": "getUserCount",
      "outputs": [
        {
          "name": "count",
          "type": "uint256"
        }
      ],
      "payable": false,
      "stateMutability": "view",
      "type": "function"
    },
    {
      "constant": true,
      "inputs": [
        {
          "name": "index",
          "type": "uint256"
        }
      ],
      "name": "getUserByIndex",
      "outputs": [
        {
          "name": "userAddress",
          "type": "address"
        },
        {
          "name": "name",
          "type": "bytes32"
        },
        {
          "name": "email",
          "type": "bytes32"
        },
        {
          "name": "role",
          "type": "bytes32"
        },
        {
          "name": "password",
          "type": "bytes32"
        }
      ],
      "payable": false,
      "stateMutability": "view",
      "type": "function"
    },
    {
      "constant": true,
      "inputs": [
        {
          "name": "index",
          "type": "uint256"
        }
      ],
      "name": "getAddressByIndex",
      "outputs": [
        {
          "name": "userAddress",
          "type": "address"
        }
      ],
      "payable": false,
      "stateMutability": "view",
      "type": "function"
    },
    {
      "constant": true,
      "inputs": [
        {
          "name": "index",
          "type": "uint256"
        }
      ],
      "name": "getNameByIndex",
      "outputs": [
        {
          "name": "name",
          "type": "bytes32"
        }
      ],
      "payable": false,
      "stateMutability": "view",
      "type": "function"
    },
    {
      "constant": true,
      "inputs": [
        {
          "name": "userAddress",
          "type": "address"
        }
      ],
      "name": "getUserByAddress",
      "outputs": [
        {
          "name": "index",
          "type": "uint256"
        },
        {
          "name": "name",
          "type": "bytes32"
        }
      ],
      "payable": false,
      "stateMutability": "view",
      "type": "function"
    },
    {
      "constant": true,
      "inputs": [
        {
          "name": "userAddress",
          "type": "address"
        }
      ],
      "name": "getIndexByAddress",
      "outputs": [
        {
          "name": "index",
          "type": "uint256"
        }
      ],
      "payable": false,
      "stateMutability": "view",
      "type": "function"
    },
    {
      "constant": true,
      "inputs": [
        {
          "name": "userAddress",
          "type": "address"
        }
      ],
      "name": "getNameByAddress",
      "outputs": [
        {
          "name": "name",
          "type": "bytes32"
        }
      ],
      "payable": false,
      "stateMutability": "view",
      "type": "function"
    },
    {
      "constant": true,
      "inputs": [
        {
          "name": "name",
          "type": "bytes32"
        }
      ],
      "name": "getUserByName",
      "outputs": [
        {
          "name": "index",
          "type": "uint256"
        },
        {
          "name": "userAddress",
          "type": "address"
        }
      ],
      "payable": false,
      "stateMutability": "view",
      "type": "function"
    },
    {
      "constant": true,
      "inputs": [
        {
          "name": "name",
          "type": "bytes32"
        }
      ],
      "name": "getIndexByName",
      "outputs": [
        {
          "name": "index",
          "type": "uint256"
        }
      ],
      "payable": false,
      "stateMutability": "view",
      "type": "function"
    },
    {
      "constant": true,
      "inputs": [
        {
          "name": "name",
          "type": "bytes32"
        }
      ],
      "name": "getAddressByName",
      "outputs": [
        {
          "name": "userAddress",
          "type": "address"
        }
      ],
      "payable": false,
      "stateMutability": "view",
      "type": "function"
    },
    {
      "constant": true,
      "inputs": [
        {
          "name": "email",
          "type": "bytes32"
        }
      ],
      "name": "getUserByEmail",
      "outputs": [
        {
          "name": "index",
          "type": "int256"
        },
        {
          "name": "userAddress",
          "type": "address"
        },
        {
          "name": "name",
          "type": "bytes32"
        },
        {
          "name": "password",
          "type": "bytes32"
        },
        {
          "name": "role",
          "type": "bytes32"
        }
      ],
      "payable": false,
      "stateMutability": "view",
      "type": "function"
    },
    {
      "constant": true,
      "inputs": [
        {
          "name": "email",
          "type": "bytes32"
        }
      ],
      "name": "getIndexByEmail",
      "outputs": [
        {
          "name": "index",
          "type": "uint256"
        }
      ],
      "payable": false,
      "stateMutability": "view",
      "type": "function"
    },
    {
      "constant": true,
      "inputs": [
        {
          "name": "email",
          "type": "bytes32"
        }
      ],
      "name": "getAddressByEmail",
      "outputs": [
        {
          "name": "userAddress",
          "type": "address"
        }
      ],
      "payable": false,
      "stateMutability": "view",
      "type": "function"
    }
  ],
  "bytecode": "0x608060405234801561001057600080fd5b5060033390806001815401808255809150509060018203906000526020600020016000909192909190916101000a81548173ffffffffffffffffffffffffffffffffffffffff021916908373ffffffffffffffffffffffffffffffffffffffff1602179055505060048060018154018082558091505090600182039060005260206000200160007f4d43415a000000000000000000000000000000000000000000000000000000009091909150555060058060018154018082558091505090600182039060005260206000200160007f61646d696e406578616d706c652e636f6d0000000000000000000000000000009091909150555060068060018154018082558091505090600182039060005260206000200160007f31323334353600000000000000000000000000000000000000000000000000009091909150555060078060018154018082558091505090600182039060005260206000200160007f61646d696e0000000000000000000000000000000000000000000000000000009091909150555061132c806101a66000396000f3fe6080604052600436106100f6576000357c0100000000000000000000000000000000000000000000000000000000900480631134cccd146100fb5780631973ef911461016c5780631f75b346146101d1578063339f70841461024c5780633b9aee00146102c757806359c293f11461031657806369c212f6146103655780636e935422146103d15780637c80bb4f146104245780637faff8761461048957806385bfe55d146104dc578063a6c4ec0e14610573578063b5cb15f7146105dc578063c9b3ac2414610607578063ce10cf8814610689578063d71d0ca214610704578063dcfe1b0e14610757578063ff5d32fe146107a6575b600080fd5b34801561010757600080fd5b506101526004803603608081101561011e57600080fd5b810190808035906020019092919080359060200190929190803590602001909291908035906020019092919050505061083d565b604051808215151515815260200191505060405180910390f35b34801561017857600080fd5b506101bb6004803603602081101561018f57600080fd5b81019080803573ffffffffffffffffffffffffffffffffffffffff169060200190929190505050610a17565b6040518082815260200191505060405180910390f35b3480156101dd57600080fd5b5061020a600480360360208110156101f457600080fd5b8101908080359060200190929190505050610a73565b604051808273ffffffffffffffffffffffffffffffffffffffff1673ffffffffffffffffffffffffffffffffffffffff16815260200191505060405180910390f35b34801561025857600080fd5b506102856004803603602081101561026f57600080fd5b8101908080359060200190929190505050610add565b604051808273ffffffffffffffffffffffffffffffffffffffff1673ffffffffffffffffffffffffffffffffffffffff16815260200191505060405180910390f35b3480156102d357600080fd5b50610300600480360360208110156102ea57600080fd5b8101908080359060200190929190505050610b47565b6040518082815260200191505060405180910390f35b34801561032257600080fd5b5061034f6004803603602081101561033957600080fd5b8101908080359060200190929190505050610b78565b6040518082815260200191505060405180910390f35b34801561037157600080fd5b506103b46004803603602081101561038857600080fd5b81019080803573ffffffffffffffffffffffffffffffffffffffff169060200190929190505050610bae565b604051808381526020018281526020019250505060405180910390f35b3480156103dd57600080fd5b5061040a600480360360208110156103f457600080fd5b8101908080359060200190929190505050610c64565b604051808215151515815260200191505060405180910390f35b34801561043057600080fd5b506104736004803603602081101561044757600080fd5b81019080803573ffffffffffffffffffffffffffffffffffffffff169060200190929190505050610cad565b6040518082815260200191505060405180910390f35b34801561049557600080fd5b506104c2600480360360208110156104ac57600080fd5b8101908080359060200190929190505050610d22565b604051808215151515815260200191505060405180910390f35b3480156104e857600080fd5b50610515600480360360208110156104ff57600080fd5b8101908080359060200190929190505050610d9d565b604051808681526020018573ffffffffffffffffffffffffffffffffffffffff1673ffffffffffffffffffffffffffffffffffffffff1681526020018481526020018381526020018281526020019550505050505060405180910390f35b34801561057f57600080fd5b506105c26004803603602081101561059657600080fd5b81019080803573ffffffffffffffffffffffffffffffffffffffff169060200190929190505050610fdc565b604051808215151515815260200191505060405180910390f35b3480156105e857600080fd5b506105f16110d3565b6040518082815260200191505060405180910390f35b34801561061357600080fd5b506106406004803603602081101561062a57600080fd5b81019080803590602001909291905050506110e0565b604051808381526020018273ffffffffffffffffffffffffffffffffffffffff1673ffffffffffffffffffffffffffffffffffffffff1681526020019250505060405180910390f35b34801561069557600080fd5b506106c2600480360360208110156106ac57600080fd5b8101908080359060200190929190505050611160565b604051808273ffffffffffffffffffffffffffffffffffffffff1673ffffffffffffffffffffffffffffffffffffffff16815260200191505060405180910390f35b34801561071057600080fd5b5061073d6004803603602081101561072757600080fd5b81019080803590602001909291905050506111b6565b604051808215151515815260200191505060405180910390f35b34801561076357600080fd5b506107906004803603602081101561077a57600080fd5b81019080803590602001909291905050506111ff565b6040518082815260200191505060405180910390f35b3480156107b257600080fd5b506107df600480360360208110156107c957600080fd5b8101908080359060200190929190505050611230565b604051808673ffffffffffffffffffffffffffffffffffffffff1673ffffffffffffffffffffffffffffffffffffffff1681526020018581526020018481526020018381526020018281526020019550505050505060405180910390f35b600061084885610c64565b15801561085b5750610859846111b6565b155b15610a0a5760033390806001815401808255809150509060018203906000526020600020016000909192909190916101000a81548173ffffffffffffffffffffffffffffffffffffffff021916908373ffffffffffffffffffffffffffffffffffffffff1602179055505060048590806001815401808255809150509060018203906000526020600020016000909192909190915055506005849080600181540180825580915050906001820390600052602060002001600090919290919091505550600683908060018154018082558091505090600182039060005260206000200160009091929091909150555060078290806001815401808255809150509060018203906000526020600020016000909192909190915055506001600380549050036000803373ffffffffffffffffffffffffffffffffffffffff1673ffffffffffffffffffffffffffffffffffffffff168152602001908152602001600020819055506001600480549050036001600087815260200190815260200160002081905550600160058054905003600260008681526020019081526020016000208190555060019050610a0f565b600090505b949350505050565b6000610a2282610fdc565b1515610a2d57600080fd5b6000808373ffffffffffffffffffffffffffffffffffffffff1673ffffffffffffffffffffffffffffffffffffffff168152602001908152602001600020549050919050565b6000610a7e826111b6565b1515610a8957600080fd5b60036002600084815260200190815260200160002054815481101515610aab57fe5b9060005260206000200160009054906101000a900473ffffffffffffffffffffffffffffffffffffffff169050919050565b6000610ae882610c64565b1515610af357600080fd5b60036001600084815260200190815260200160002054815481101515610b1557fe5b9060005260206000200160009054906101000a900473ffffffffffffffffffffffffffffffffffffffff169050919050565b6000610b5282610c64565b1515610b5d57600080fd5b60016000838152602001908152602001600020549050919050565b600060038054905082101515610b8d57600080fd5b600482815481101515610b9c57fe5b90600052602060002001549050919050565b60008060038054905082101515610bc457600080fd5b6000808473ffffffffffffffffffffffffffffffffffffffff1673ffffffffffffffffffffffffffffffffffffffff1681526020019081526020016000205460046000808673ffffffffffffffffffffffffffffffffffffffff1673ffffffffffffffffffffffffffffffffffffffff16815260200190815260200160002054815481101515610c5057fe5b906000526020600020015491509150915091565b60008060016000848152602001908152602001600020541180610ca657507f4d43415a0000000000000000000000000000000000000000000000000000000082145b9050919050565b6000610cb882610fdc565b1515610cc357600080fd5b60046000808473ffffffffffffffffffffffffffffffffffffffff1673ffffffffffffffffffffffffffffffffffffffff16815260200190815260200160002054815481101515610d1057fe5b90600052602060002001549050919050565b6000610d2d33610fdc565b1515610d3857600080fd5b8160066000803373ffffffffffffffffffffffffffffffffffffffff1673ffffffffffffffffffffffffffffffffffffffff16815260200190815260200160002054815481101515610d8657fe5b906000526020600020018190555060019050919050565b600080600080600060056002600088815260200190815260200160002054815481101515610dc757fe5b9060005260206000200154861415610ed057600260008781526020019081526020016000205460036002600089815260200190815260200160002054815481101515610e0f57fe5b9060005260206000200160009054906101000a900473ffffffffffffffffffffffffffffffffffffffff166004600260008a815260200190815260200160002054815481101515610e5c57fe5b90600052602060002001546006600260008b815260200190815260200160002054815481101515610e8957fe5b90600052602060002001546007600260008c815260200190815260200160002054815481101515610eb657fe5b906000526020600020015494509450945094509450610fd3565b7fffffffffffffffffffffffffffffffffffffffffffffffffffffffffffffffff60036002600089815260200190815260200160002054815481101515610f1357fe5b9060005260206000200160009054906101000a900473ffffffffffffffffffffffffffffffffffffffff166004600260008a815260200190815260200160002054815481101515610f6057fe5b90600052602060002001546006600260008b815260200190815260200160002054815481101515610f8d57fe5b90600052602060002001546007600260008c815260200190815260200160002054815481101515610fba57fe5b9060005260206000200154849450945094509450945094505b91939590929450565b6000806000808473ffffffffffffffffffffffffffffffffffffffff1673ffffffffffffffffffffffffffffffffffffffff1681526020019081526020016000205411806110cc575060036000808473ffffffffffffffffffffffffffffffffffffffff1673ffffffffffffffffffffffffffffffffffffffff1681526020019081526020016000205481548110151561107257fe5b9060005260206000200160009054906101000a900473ffffffffffffffffffffffffffffffffffffffff1673ffffffffffffffffffffffffffffffffffffffff168273ffffffffffffffffffffffffffffffffffffffff16145b9050919050565b6000600380549050905090565b600080600380549050821015156110f657600080fd5b60016000848152602001908152602001600020546003600160008681526020019081526020016000205481548110151561112c57fe5b9060005260206000200160009054906101000a900473ffffffffffffffffffffffffffffffffffffffff1691509150915091565b60006003805490508210151561117557600080fd5b60038281548110151561118457fe5b9060005260206000200160009054906101000a900473ffffffffffffffffffffffffffffffffffffffff169050919050565b600080600260008481526020019081526020016000205411806111f857507f61646d696e406578616d706c652e636f6d00000000000000000000000000000082145b9050919050565b600061120a826111b6565b151561121557600080fd5b60026000838152602001908152602001600020549050919050565b60008060008060006003805490508610151561124b57600080fd5b60038681548110151561125a57fe5b9060005260206000200160009054906101000a900473ffffffffffffffffffffffffffffffffffffffff1660048781548110151561129457fe5b90600052602060002001546005888154811015156112ae57fe5b90600052602060002001546007898154811015156112c857fe5b906000526020600020015460068a8154811015156112e257fe5b9060005260206000200154945094509450945094509193959092945056fea165627a7a72305820f40b0d051a3b9038cbd5724607c38740ae3de84404d90c5fee40ce79f99f5bcc0029",
  "source": "// SPDX-License-Identifier: MIT\r\n\r\npragma solidity >=0.4.22 <0.9.0;\r\n\r\n\r\ncontract User {\r\n    mapping(address => uint) private addressToIndex;\r\n    mapping(bytes32 => uint) private nameToIndex;\r\n    mapping(bytes32 => uint) private emailToIndex;\r\n\r\n    address[] private addresses;\r\n    bytes32[] private names;\r\n    bytes32[] private emails;\r\n    bytes32[] private passwords;\r\n    bytes32[] private roles;\r\n\r\n\r\n    constructor () public {\r\n\r\n        // mappings are virtually initialized to zero values so we need to \"waste\" the first element of the arrays\r\n        // instead of wasting it we use it to create a user for the contract itself\r\n        addresses.push(msg.sender);\r\n        names.push('MCAZ');\r\n        emails.push('admin@example.com');\r\n        passwords.push('123456');\r\n        roles.push('admin');\r\n\r\n\r\n    }\r\n\r\n    function hasUser(address userAddress) public view returns(bool hasIndeed)\r\n    {\r\n        return (addressToIndex[userAddress] > 0 || userAddress == addresses[addressToIndex[userAddress]]);\r\n    }\r\n\r\n    function nameTaken(bytes32 name) public view returns(bool takenIndeed)\r\n    {\r\n        return (nameToIndex[name] > 0 || name == 'MCAZ');\r\n    }\r\n\r\n    function emailTaken(bytes32 email) public view returns(bool takenIndeed)\r\n    {\r\n        return (emailToIndex[email] > 0 || email == 'admin@example.com');\r\n    }\r\n\r\n    function createUser(bytes32 name,bytes32 email, bytes32 password,bytes32 role ) public returns(bool success)\r\n    {\r\n//        require(hasUser(msg.sender));\r\n\r\n        if(!nameTaken(name) && !emailTaken(email)){\r\n            addresses.push(msg.sender);\r\n            names.push(name);\r\n            emails.push(email);\r\n            passwords.push(password);\r\n            roles.push(role);\r\n\r\n\r\n            addressToIndex[msg.sender] = addresses.length - 1;\r\n            nameToIndex[name] = names.length - 1;\r\n            emailToIndex[email] = emails.length-1;\r\n\r\n            return true;\r\n        }\r\n\r\n        return false;\r\n    }\r\n\r\n    function updateUser(bytes32 password) public returns(bool success)\r\n    {\r\n        require(hasUser(msg.sender));\r\n\r\n        passwords[addressToIndex[msg.sender]] = password;\r\n        return true;\r\n    }\r\n\r\n    function getUserCount() public view returns(uint count)\r\n    {\r\n        return addresses.length;\r\n    }\r\n\r\n\r\n    // get by index\r\n    function getUserByIndex(uint index) public view returns(address userAddress, bytes32 name,bytes32 email,bytes32 role,bytes32 password) {\r\n        require(index < addresses.length);\r\n\r\n        return(addresses[index], names[index], emails[index], roles[index],passwords[index]);\r\n    }\r\n\r\n    function getAddressByIndex(uint index) public view returns(address userAddress)\r\n    {\r\n        require(index < addresses.length);\r\n\r\n        return addresses[index];\r\n    }\r\n\r\n    function getNameByIndex(uint index) public view returns(bytes32 name)\r\n    {\r\n        require(index < addresses.length);\r\n\r\n        return names[index];\r\n    }\r\n\r\n\r\n\r\n    // get by address\r\n    function getUserByAddress(address userAddress) public view returns(uint index, bytes32 name) {\r\n        require(index < addresses.length);\r\n\r\n        return(addressToIndex[userAddress], names[addressToIndex[userAddress]]);\r\n    }\r\n\r\n    function getIndexByAddress(address userAddress) public view returns(uint index)\r\n    {\r\n        require(hasUser(userAddress));\r\n\r\n        return addressToIndex[userAddress];\r\n    }\r\n\r\n    function getNameByAddress(address userAddress) public view returns(bytes32 name)\r\n    {\r\n        require(hasUser(userAddress));\r\n\r\n        return names[addressToIndex[userAddress]];\r\n    }\r\n\r\n\r\n\r\n    // get by name\r\n    function getUserByName(bytes32 name) public view returns(uint index, address userAddress) {\r\n        require(index < addresses.length);\r\n\r\n        return(nameToIndex[name], addresses[nameToIndex[name]]);\r\n    }\r\n\r\n    function getIndexByName(bytes32 name) public view returns(uint index)\r\n    {\r\n        require(nameTaken(name));\r\n\r\n        return nameToIndex[name];\r\n    }\r\n\r\n    function getAddressByName(bytes32 name) public view returns(address userAddress)\r\n    {\r\n        require(nameTaken(name));\r\n\r\n        return addresses[nameToIndex[name]];\r\n    }\r\n\r\n\r\n\r\n    // get by email\r\n    function getUserByEmail(bytes32 email) public view returns(int index, address userAddress,bytes32 name,bytes32 password,bytes32 role) {\r\n       // require(index < addresses.length);\r\n        if(email == emails[emailToIndex[email]]){\r\n                    return\r\n                    (\r\n                    int(emailToIndex[email]), addresses[emailToIndex[email]],\r\n                    names[emailToIndex[email]], passwords[emailToIndex[email]],\r\n                    roles[emailToIndex[email]]\r\n                    );\r\n        }\r\n        else\r\n        {\r\n        return (-1, addresses[emailToIndex[email]],\r\n                                    names[emailToIndex[email]], passwords[emailToIndex[email]],\r\n                                    roles[emailToIndex[email]]);\r\n        }\r\n\r\n    }\r\n\r\n    function getIndexByEmail(bytes32 email) public view returns(uint index)\r\n    {\r\n        require(emailTaken(email));\r\n\r\n        return emailToIndex[email];\r\n    }\r\n\r\n    function getAddressByEmail(bytes32 email) public view returns(address userAddress)\r\n    {\r\n        require(emailTaken(email));\r\n\r\n        return addresses[emailToIndex[email]];\r\n    }\r\n\r\n\r\n}",
  "sourcePath": "C:/Users/Dell/Documents/SourceTree/pharma-supply-blockchain/contracts/User.sol",
  "compiler": {
    "name": "solc",
    "version": "0.5.1+commit.c8a2cb62.Emscripten.clang"
  },
  "schemaVersion": "3.3.3",
  "updatedAt": "2021-05-20T10:46:46.216Z",
  "networkType": "ethereum",
  "devdoc": {
    "methods": {}
  },
  "userdoc": {
    "methods": {}
  }
}